{"abi":[{"type":"constructor","inputs":[{"name":"entranceFee","type":"uint256","internalType":"uint256"},{"name":"interval","type":"uint256","internalType":"uint256"},{"name":"vrfCoordinator","type":"address","internalType":"address"},{"name":"gaslane","type":"bytes32","internalType":"bytes32"},{"name":"subscriptionId","type":"uint256","internalType":"uint256"},{"name":"callbackGasLimit","type":"uint32","internalType":"uint32"}],"stateMutability":"nonpayable"},{"type":"function","name":"acceptOwnership","inputs":[],"outputs":[],"stateMutability":"nonpayable"},{"type":"function","name":"checkUpkeep","inputs":[{"name":"","type":"bytes","internalType":"bytes"}],"outputs":[{"name":"upkeepNeeded","type":"bool","internalType":"bool"},{"name":"","type":"bytes","internalType":"bytes"}],"stateMutability":"view"},{"type":"function","name":"enterRaffle","inputs":[],"outputs":[],"stateMutability":"payable"},{"type":"function","name":"getEntranceFee","inputs":[],"outputs":[{"name":"","type":"uint256","internalType":"uint256"}],"stateMutability":"view"},{"type":"function","name":"getInterval","inputs":[],"outputs":[{"name":"","type":"uint256","internalType":"uint256"}],"stateMutability":"view"},{"type":"function","name":"getLastTimeStamp","inputs":[],"outputs":[{"name":"","type":"uint256","internalType":"uint256"}],"stateMutability":"view"},{"type":"function","name":"getNumWords","inputs":[],"outputs":[{"name":"","type":"uint256","internalType":"uint256"}],"stateMutability":"pure"},{"type":"function","name":"getNumberOfPlayers","inputs":[],"outputs":[{"name":"","type":"uint256","internalType":"uint256"}],"stateMutability":"view"},{"type":"function","name":"getPlayer","inputs":[{"name":"index","type":"uint256","internalType":"uint256"}],"outputs":[{"name":"","type":"address","internalType":"address"}],"stateMutability":"view"},{"type":"function","name":"getRaffleState","inputs":[],"outputs":[{"name":"","type":"uint8","internalType":"enum Raffle.RaffleState"}],"stateMutability":"view"},{"type":"function","name":"getRecentWinner","inputs":[],"outputs":[{"name":"","type":"address","internalType":"address"}],"stateMutability":"view"},{"type":"function","name":"getRequestConfirmations","inputs":[],"outputs":[{"name":"","type":"uint256","internalType":"uint256"}],"stateMutability":"pure"},{"type":"function","name":"owner","inputs":[],"outputs":[{"name":"","type":"address","internalType":"address"}],"stateMutability":"view"},{"type":"function","name":"performUpkeep","inputs":[{"name":"","type":"bytes","internalType":"bytes"}],"outputs":[],"stateMutability":"nonpayable"},{"type":"function","name":"rawFulfillRandomWords","inputs":[{"name":"requestId","type":"uint256","internalType":"uint256"},{"name":"randomWords","type":"uint256[]","internalType":"uint256[]"}],"outputs":[],"stateMutability":"nonpayable"},{"type":"function","name":"s_vrfCoordinator","inputs":[],"outputs":[{"name":"","type":"address","internalType":"contract IVRFCoordinatorV2Plus"}],"stateMutability":"view"},{"type":"function","name":"setCoordinator","inputs":[{"name":"_vrfCoordinator","type":"address","internalType":"address"}],"outputs":[],"stateMutability":"nonpayable"},{"type":"function","name":"transferOwnership","inputs":[{"name":"to","type":"address","internalType":"address"}],"outputs":[],"stateMutability":"nonpayable"},{"type":"event","name":"CoordinatorSet","inputs":[{"name":"vrfCoordinator","type":"address","indexed":false,"internalType":"address"}],"anonymous":false},{"type":"event","name":"OwnershipTransferRequested","inputs":[{"name":"from","type":"address","indexed":true,"internalType":"address"},{"name":"to","type":"address","indexed":true,"internalType":"address"}],"anonymous":false},{"type":"event","name":"OwnershipTransferred","inputs":[{"name":"from","type":"address","indexed":true,"internalType":"address"},{"name":"to","type":"address","indexed":true,"internalType":"address"}],"anonymous":false},{"type":"event","name":"RaffleEntered","inputs":[{"name":"player","type":"address","indexed":true,"internalType":"address"}],"anonymous":false},{"type":"event","name":"RequestedRaffleWinner","inputs":[{"name":"requestId","type":"uint256","indexed":true,"internalType":"uint256"}],"anonymous":false},{"type":"event","name":"WinnerPicked","inputs":[{"name":"player","type":"address","indexed":true,"internalType":"address"}],"anonymous":false},{"type":"error","name":"OnlyCoordinatorCanFulfill","inputs":[{"name":"have","type":"address","internalType":"address"},{"name":"want","type":"address","internalType":"address"}]},{"type":"error","name":"OnlyOwnerOrCoordinator","inputs":[{"name":"have","type":"address","internalType":"address"},{"name":"owner","type":"address","internalType":"address"},{"name":"coordinator","type":"address","internalType":"address"}]},{"type":"error","name":"Raffle__RaffleNotOpen","inputs":[]},{"type":"error","name":"Raffle__SendMoreEthToEnterRaffle","inputs":[]},{"type":"error","name":"Raffle__TransferFailed","inputs":[]},{"type":"error","name":"Raffle__UpkeepNotNeeded","inputs":[{"name":"currentBalance","type":"uint256","internalType":"uint256"},{"name":"numPlayers","type":"uint256","internalType":"uint256"},{"name":"raffleState","type":"uint256","internalType":"uint256"}]},{"type":"error","name":"ZeroAddress","inputs":[]}],"bytecode":{"object":"0x61014060405234801561001157600080fd5b50604051620012c1380380620012c1833981016040819052610032916101ea565b8333806000816100895760405162461bcd60e51b815260206004820152601860248201527f43616e6e6f7420736574206f776e657220746f207a65726f000000000000000060448201526064015b60405180910390fd5b600080546001600160a01b0319166001600160a01b03848116919091179091558116156100b9576100b981610141565b5050506001600160a01b0381166100e35760405163d92e233d60e01b815260040160405180910390fd5b600280546001600160a01b0319166001600160a01b039290921691909117905560809590955260a0939093524260045560c0819052610100929092525063ffffffff909116610120526005805460ff60a01b1916905560e052610260565b336001600160a01b038216036101995760405162461bcd60e51b815260206004820152601760248201527f43616e6e6f74207472616e7366657220746f2073656c660000000000000000006044820152606401610080565b600180546001600160a01b0319166001600160a01b0383811691821790925560008054604051929316917fed8889f560326eb138920d842192f0eb3dd22b4f139c87a2c57538e05bae12789190a350565b60008060008060008060c0878903121561020357600080fd5b86516020880151604089015191975095506001600160a01b038116811461022957600080fd5b80945050606087015192506080870151915060a087015163ffffffff8116811461025257600080fd5b809150509295509295509295565b60805160a05160c05160e0516101005161012051611006620002bb6000396000610585015260006105500152600061052d015260005050600081816102ab01526106a401526000818161011d01526103b001526110066000f3fe6080604052600436106101095760003560e01c806379ba5097116100955780639eccacf6116100645780639eccacf6146102cf578063c1c244e8146102ef578063e55ae4e814610304578063f2fde38b14610324578063fd6673f51461034457600080fd5b806379ba5097146102495780638da5cb5b1461025e5780638ea981171461027c57806391ad27b41461029c57600080fd5b80634585e33b116100dc5780634585e33b146101a1578063473f1ddc146101c157806353a2c19a146101f35780635f1b0fd8146102075780636e04ff0d1461021b57600080fd5b806309bc33a71461010e578063115cbaf5146101505780631fe543e3146101775780632cfcc53914610199575b600080fd5b34801561011a57600080fd5b507f00000000000000000000000000000000000000000000000000000000000000005b6040519081526020015b60405180910390f35b34801561015c57600080fd5b50600554600160a01b900460ff166040516101479190610c69565b34801561018357600080fd5b50610197610192366004610c91565b610359565b005b6101976103ae565b3480156101ad57600080fd5b506101976101bc366004610d10565b61049b565b3480156101cd57600080fd5b506005546001600160a01b03165b6040516001600160a01b039091168152602001610147565b3480156101ff57600080fd5b50600161013d565b34801561021357600080fd5b50600361013d565b34801561022757600080fd5b5061023b610236366004610d98565b610674565b604051610147929190610e8f565b34801561025557600080fd5b50610197610721565b34801561026a57600080fd5b506000546001600160a01b03166101db565b34801561028857600080fd5b50610197610297366004610eb2565b6107cb565b3480156102a857600080fd5b507f000000000000000000000000000000000000000000000000000000000000000061013d565b3480156102db57600080fd5b506002546101db906001600160a01b031681565b3480156102fb57600080fd5b5060045461013d565b34801561031057600080fd5b506101db61031f366004610ee2565b6108bd565b34801561033057600080fd5b5061019761033f366004610eb2565b6108ed565b34801561035057600080fd5b5060035461013d565b6002546001600160a01b0316331461039e5760025460405163073e64fd60e21b81523360048201526001600160a01b0390911660248201526044015b60405180910390fd5b6103a9838383610901565b505050565b7f00000000000000000000000000000000000000000000000000000000000000003410156103ef576040516378d760e160e11b815260040160405180910390fd5b6000600554600160a01b900460ff16600181111561040f5761040f610c53565b1461042d5760405163349289c560e21b815260040160405180910390fd5b6003805460018101825560009182527fc2575a0e9e593c00f959f8c92f12db2869c3395a3b0502d05e2516446f71f85b0180546001600160a01b0319163390811790915560405190917f634f3211e3a4e43fee5a21ad9f87ca153b300fc78b1c557a2057dbe9c63bcb4791a2565b60006104b560405180602001604052806000815250610674565b5090508061050b57600354600554479190600160a01b900460ff1660018111156104e1576104e1610c53565b604051632c2193d560e11b8152600481019390935260248301919091526044820152606401610395565b6005805460ff60a01b1916600160a01b1790556002546040805160c0810182527f000000000000000000000000000000000000000000000000000000000000000081527f000000000000000000000000000000000000000000000000000000000000000060208083019190915260038284015263ffffffff7f00000000000000000000000000000000000000000000000000000000000000001660608301526001608083015282519081019092526000808352926001600160a01b031691639b1c385e919060a08201906105de90610a6a565b8152506040518263ffffffff1660e01b81526004016105fd9190610efb565b6020604051808303816000875af115801561061c573d6000803e3d6000fd5b505050506040513d601f19601f820116820180604052508101906106409190610f58565b60405190915081907fcd6e45c8998311cab7e9d4385596cac867e20a0587194b954fa3a731c93ce78b90600090a250505050565b600060606000600560149054906101000a900460ff16600181111561069b5761069b610c53565b600014905060007f0000000000000000000000000000000000000000000000000000000000000000600454426106d19190610f71565b6003549110915015154715158280156106e75750835b80156106f05750805b80156106f95750815b60408051808201909152600381526203078360ec1b6020820152909890975095505050505050565b6001546001600160a01b031633146107745760405162461bcd60e51b815260206004820152601660248201527526bab9ba10313290383937b837b9b2b21037bbb732b960511b6044820152606401610395565b60008054336001600160a01b0319808316821784556001805490911690556040516001600160a01b0390921692909183917f8be0079c531659141344cd1fd0a4f28419497f9722a3daafe3b4186f6b6457e091a350565b6000546001600160a01b031633148015906107f157506002546001600160a01b03163314155b1561084257336108096000546001600160a01b031690565b60025460405163061db9c160e01b81526001600160a01b0393841660048201529183166024830152919091166044820152606401610395565b6001600160a01b0381166108695760405163d92e233d60e01b815260040160405180910390fd5b600280546001600160a01b0319166001600160a01b0383169081179091556040519081527fd1a6a14209a385a964d036e404cb5cfb71f4000cdb03c9366292430787261be69060200160405180910390a150565b6000600382815481106108d2576108d2610f98565b6000918252602090912001546001600160a01b031692915050565b6108f5610adb565b6108fe81610b30565b50565b6003546000908383838161091757610917610f98565b905060200201356109289190610fae565b905060006003828154811061093f5761093f610f98565b6000918252602082200154600580546001600160a01b0319166001600160a01b0390921691821790559150604051908082528060200260200182016040528015610993578160200160208202803683370190505b5080516109a891600391602090910190610bd9565b506005805460ff60a01b19169055426004556040516001600160a01b038216907f5b690ec4a06fe979403046eaeea5b3ce38524683c3001f662c8b5a829632f7df90600090a26000816001600160a01b03164760405160006040518083038185875af1925050503d8060008114610a3b576040519150601f19603f3d011682016040523d82523d6000602084013e610a40565b606091505b5050905080610a625760405163a1d04b3960e01b815260040160405180910390fd5b505050505050565b60607f92fd13387c7fe7befbc38d303d6468778fb9731bc4583f17d92989c6fcfdeaaa82604051602401610aa391511515815260200190565b60408051601f198184030181529190526020810180516001600160e01b03166001600160e01b03199093169290921790915292915050565b6000546001600160a01b03163314610b2e5760405162461bcd60e51b815260206004820152601660248201527527b7363c9031b0b63630b1363290313c9037bbb732b960511b6044820152606401610395565b565b336001600160a01b03821603610b885760405162461bcd60e51b815260206004820152601760248201527f43616e6e6f74207472616e7366657220746f2073656c660000000000000000006044820152606401610395565b600180546001600160a01b0319166001600160a01b0383811691821790925560008054604051929316917fed8889f560326eb138920d842192f0eb3dd22b4f139c87a2c57538e05bae12789190a350565b828054828255906000526020600020908101928215610c2e579160200282015b82811115610c2e57825182546001600160a01b0319166001600160a01b03909116178255602090920191600190910190610bf9565b50610c3a929150610c3e565b5090565b5b80821115610c3a5760008155600101610c3f565b634e487b7160e01b600052602160045260246000fd5b6020810160028310610c8b57634e487b7160e01b600052602160045260246000fd5b91905290565b600080600060408486031215610ca657600080fd5b83359250602084013567ffffffffffffffff80821115610cc557600080fd5b818601915086601f830112610cd957600080fd5b813581811115610ce857600080fd5b8760208260051b8501011115610cfd57600080fd5b6020830194508093505050509250925092565b60008060208385031215610d2357600080fd5b823567ffffffffffffffff80821115610d3b57600080fd5b818501915085601f830112610d4f57600080fd5b813581811115610d5e57600080fd5b866020828501011115610d7057600080fd5b60209290920196919550909350505050565b634e487b7160e01b600052604160045260246000fd5b600060208284031215610daa57600080fd5b813567ffffffffffffffff80821115610dc257600080fd5b818401915084601f830112610dd657600080fd5b813581811115610de857610de8610d82565b604051601f8201601f19908116603f01168101908382118183101715610e1057610e10610d82565b81604052828152876020848701011115610e2957600080fd5b826020860160208301376000928101602001929092525095945050505050565b6000815180845260005b81811015610e6f57602081850181015186830182015201610e53565b506000602082860101526020601f19601f83011685010191505092915050565b8215158152604060208201526000610eaa6040830184610e49565b949350505050565b600060208284031215610ec457600080fd5b81356001600160a01b0381168114610edb57600080fd5b9392505050565b600060208284031215610ef457600080fd5b5035919050565b60208152815160208201526020820151604082015261ffff60408301511660608201526000606083015163ffffffff80821660808501528060808601511660a0850152505060a083015160c080840152610eaa60e0840182610e49565b600060208284031215610f6a57600080fd5b5051919050565b81810381811115610f9257634e487b7160e01b600052601160045260246000fd5b92915050565b634e487b7160e01b600052603260045260246000fd5b600082610fcb57634e487b7160e01b600052601260045260246000fd5b50069056fea2646970667358221220146a940b2dc8fb00b86423eececdd108b670ef690c410e7f43693ef91395cf8664736f6c63430008130033","linkReferences":{}},"methodIdentifiers":{"acceptOwnership()":"79ba5097","checkUpkeep(bytes)":"6e04ff0d","enterRaffle()":"2cfcc539","getEntranceFee()":"09bc33a7","getInterval()":"91ad27b4","getLastTimeStamp()":"c1c244e8","getNumWords()":"53a2c19a","getNumberOfPlayers()":"fd6673f5","getPlayer(uint256)":"e55ae4e8","getRaffleState()":"115cbaf5","getRecentWinner()":"473f1ddc","getRequestConfirmations()":"5f1b0fd8","owner()":"8da5cb5b","performUpkeep(bytes)":"4585e33b","rawFulfillRandomWords(uint256,uint256[])":"1fe543e3","s_vrfCoordinator()":"9eccacf6","setCoordinator(address)":"8ea98117","transferOwnership(address)":"f2fde38b"},"id":45}