{"abi":[{"type":"constructor","inputs":[{"name":"entranceFee","type":"uint256","internalType":"uint256"},{"name":"interval","type":"uint256","internalType":"uint256"}],"stateMutability":"nonpayable"},{"type":"function","name":"enterRaffle","inputs":[],"outputs":[],"stateMutability":"payable"},{"type":"function","name":"getEntranceFee","inputs":[],"outputs":[{"name":"","type":"uint256","internalType":"uint256"}],"stateMutability":"view"},{"type":"event","name":"RaffleEntered","inputs":[{"name":"player","type":"address","indexed":true,"internalType":"address"}],"anonymous":false},{"type":"error","name":"Raffle_SendMoreEthToEnterRaffle","inputs":[]}],"bytecode":{"object":"0x60e060405234801561001057600080fd5b506040516101ed3803806101ed83398101604081905261002f91610041565b60809190915260c0524260a052610065565b6000806040838503121561005457600080fd5b505080516020909101519092909150565b60805160a05160c05161015a610093600039600050506000505060008181603d0152607a015261015a6000f3fe6080604052600436106100295760003560e01c806309bc33a71461002e5780632cfcc5391461006e575b600080fd5b34801561003a57600080fd5b507f000000000000000000000000000000000000000000000000000000000000000060405190815260200160405180910390f35b610076610078565b005b7f000000000000000000000000000000000000000000000000000000000000000034116100b857604051637c8324c360e01b815260040160405180910390fd5b600080546001810182558180527f290decd9548b62a8d60345a988386fc84ba6bc95484008f6362f93160ef3e5630180546001600160a01b0319163390811790915560405190917f634f3211e3a4e43fee5a21ad9f87ca153b300fc78b1c557a2057dbe9c63bcb4791a256fea2646970667358221220604915c0617402ecaf9c0e889d86d2ac4ce858aaf392ee7c01a0712707c4906b64736f6c63430008130033","linkReferences":{}},"methodIdentifiers":{"enterRaffle()":"2cfcc539","getEntranceFee()":"09bc33a7"},"id":8}